{
  "_format": "hh-sol-artifact-1",
  "contractName": "MyEpicNFT",
  "sourceName": "contracts/MyEpicNFT.sol",
  "abi": [
    {
      "inputs": [],
      "stateMutability": "nonpayable",
      "type": "constructor"
    },
    {
      "anonymous": false,
      "inputs": [
        {
          "indexed": true,
          "internalType": "address",
          "name": "owner",
          "type": "address"
        },
        {
          "indexed": true,
          "internalType": "address",
          "name": "approved",
          "type": "address"
        },
        {
          "indexed": true,
          "internalType": "uint256",
          "name": "tokenId",
          "type": "uint256"
        }
      ],
      "name": "Approval",
      "type": "event"
    },
    {
      "anonymous": false,
      "inputs": [
        {
          "indexed": true,
          "internalType": "address",
          "name": "owner",
          "type": "address"
        },
        {
          "indexed": true,
          "internalType": "address",
          "name": "operator",
          "type": "address"
        },
        {
          "indexed": false,
          "internalType": "bool",
          "name": "approved",
          "type": "bool"
        }
      ],
      "name": "ApprovalForAll",
      "type": "event"
    },
    {
      "anonymous": false,
      "inputs": [
        {
          "indexed": false,
          "internalType": "address",
          "name": "sender",
          "type": "address"
        },
        {
          "indexed": false,
          "internalType": "uint256",
          "name": "tokenId",
          "type": "uint256"
        }
      ],
      "name": "NewEpicNFTMinted",
      "type": "event"
    },
    {
      "anonymous": false,
      "inputs": [
        {
          "indexed": true,
          "internalType": "address",
          "name": "from",
          "type": "address"
        },
        {
          "indexed": true,
          "internalType": "address",
          "name": "to",
          "type": "address"
        },
        {
          "indexed": true,
          "internalType": "uint256",
          "name": "tokenId",
          "type": "uint256"
        }
      ],
      "name": "Transfer",
      "type": "event"
    },
    {
      "inputs": [],
      "name": "MINT_LIMIT",
      "outputs": [
        {
          "internalType": "uint256",
          "name": "",
          "type": "uint256"
        }
      ],
      "stateMutability": "view",
      "type": "function"
    },
    {
      "inputs": [
        {
          "internalType": "address",
          "name": "to",
          "type": "address"
        },
        {
          "internalType": "uint256",
          "name": "tokenId",
          "type": "uint256"
        }
      ],
      "name": "approve",
      "outputs": [],
      "stateMutability": "nonpayable",
      "type": "function"
    },
    {
      "inputs": [
        {
          "internalType": "address",
          "name": "owner",
          "type": "address"
        }
      ],
      "name": "balanceOf",
      "outputs": [
        {
          "internalType": "uint256",
          "name": "",
          "type": "uint256"
        }
      ],
      "stateMutability": "view",
      "type": "function"
    },
    {
      "inputs": [
        {
          "internalType": "uint256",
          "name": "tokenId",
          "type": "uint256"
        }
      ],
      "name": "getApproved",
      "outputs": [
        {
          "internalType": "address",
          "name": "",
          "type": "address"
        }
      ],
      "stateMutability": "view",
      "type": "function"
    },
    {
      "inputs": [],
      "name": "getLimitNFTs",
      "outputs": [
        {
          "internalType": "uint256",
          "name": "",
          "type": "uint256"
        }
      ],
      "stateMutability": "view",
      "type": "function"
    },
    {
      "inputs": [],
      "name": "getTotalNFTsMintedSoFar",
      "outputs": [
        {
          "internalType": "uint256",
          "name": "",
          "type": "uint256"
        }
      ],
      "stateMutability": "view",
      "type": "function"
    },
    {
      "inputs": [
        {
          "internalType": "address",
          "name": "owner",
          "type": "address"
        },
        {
          "internalType": "address",
          "name": "operator",
          "type": "address"
        }
      ],
      "name": "isApprovedForAll",
      "outputs": [
        {
          "internalType": "bool",
          "name": "",
          "type": "bool"
        }
      ],
      "stateMutability": "view",
      "type": "function"
    },
    {
      "inputs": [],
      "name": "makeAnEpicNFT",
      "outputs": [],
      "stateMutability": "nonpayable",
      "type": "function"
    },
    {
      "inputs": [],
      "name": "name",
      "outputs": [
        {
          "internalType": "string",
          "name": "",
          "type": "string"
        }
      ],
      "stateMutability": "view",
      "type": "function"
    },
    {
      "inputs": [
        {
          "internalType": "uint256",
          "name": "tokenId",
          "type": "uint256"
        }
      ],
      "name": "ownerOf",
      "outputs": [
        {
          "internalType": "address",
          "name": "",
          "type": "address"
        }
      ],
      "stateMutability": "view",
      "type": "function"
    },
    {
      "inputs": [
        {
          "internalType": "uint256",
          "name": "tokenId",
          "type": "uint256"
        }
      ],
      "name": "pickRandomColor",
      "outputs": [
        {
          "internalType": "string",
          "name": "",
          "type": "string"
        }
      ],
      "stateMutability": "view",
      "type": "function"
    },
    {
      "inputs": [
        {
          "internalType": "uint256",
          "name": "tokenId",
          "type": "uint256"
        }
      ],
      "name": "pickRandomFirstWord",
      "outputs": [
        {
          "internalType": "string",
          "name": "",
          "type": "string"
        }
      ],
      "stateMutability": "view",
      "type": "function"
    },
    {
      "inputs": [
        {
          "internalType": "uint256",
          "name": "tokenId",
          "type": "uint256"
        }
      ],
      "name": "pickRandomSecondWord",
      "outputs": [
        {
          "internalType": "string",
          "name": "",
          "type": "string"
        }
      ],
      "stateMutability": "view",
      "type": "function"
    },
    {
      "inputs": [
        {
          "internalType": "uint256",
          "name": "tokenId",
          "type": "uint256"
        }
      ],
      "name": "pickRandomThirdWord",
      "outputs": [
        {
          "internalType": "string",
          "name": "",
          "type": "string"
        }
      ],
      "stateMutability": "view",
      "type": "function"
    },
    {
      "inputs": [
        {
          "internalType": "address",
          "name": "from",
          "type": "address"
        },
        {
          "internalType": "address",
          "name": "to",
          "type": "address"
        },
        {
          "internalType": "uint256",
          "name": "tokenId",
          "type": "uint256"
        }
      ],
      "name": "safeTransferFrom",
      "outputs": [],
      "stateMutability": "nonpayable",
      "type": "function"
    },
    {
      "inputs": [
        {
          "internalType": "address",
          "name": "from",
          "type": "address"
        },
        {
          "internalType": "address",
          "name": "to",
          "type": "address"
        },
        {
          "internalType": "uint256",
          "name": "tokenId",
          "type": "uint256"
        },
        {
          "internalType": "bytes",
          "name": "_data",
          "type": "bytes"
        }
      ],
      "name": "safeTransferFrom",
      "outputs": [],
      "stateMutability": "nonpayable",
      "type": "function"
    },
    {
      "inputs": [
        {
          "internalType": "address",
          "name": "operator",
          "type": "address"
        },
        {
          "internalType": "bool",
          "name": "approved",
          "type": "bool"
        }
      ],
      "name": "setApprovalForAll",
      "outputs": [],
      "stateMutability": "nonpayable",
      "type": "function"
    },
    {
      "inputs": [
        {
          "internalType": "bytes4",
          "name": "interfaceId",
          "type": "bytes4"
        }
      ],
      "name": "supportsInterface",
      "outputs": [
        {
          "internalType": "bool",
          "name": "",
          "type": "bool"
        }
      ],
      "stateMutability": "view",
      "type": "function"
    },
    {
      "inputs": [],
      "name": "symbol",
      "outputs": [
        {
          "internalType": "string",
          "name": "",
          "type": "string"
        }
      ],
      "stateMutability": "view",
      "type": "function"
    },
    {
      "inputs": [
        {
          "internalType": "uint256",
          "name": "tokenId",
          "type": "uint256"
        }
      ],
      "name": "tokenURI",
      "outputs": [
        {
          "internalType": "string",
          "name": "",
          "type": "string"
        }
      ],
      "stateMutability": "view",
      "type": "function"
    },
    {
      "inputs": [
        {
          "internalType": "address",
          "name": "from",
          "type": "address"
        },
        {
          "internalType": "address",
          "name": "to",
          "type": "address"
        },
        {
          "internalType": "uint256",
          "name": "tokenId",
          "type": "uint256"
        }
      ],
      "name": "transferFrom",
      "outputs": [],
      "stateMutability": "nonpayable",
      "type": "function"
    }
  ],
  "bytecode": "0x608060405260405180610100016040528060d38152602001620045ee60d3913960089080519060200190620000369291906200082c565b50604051806080016040528060568152602001620046c16056913960099080519060200190620000689291906200082c565b506040518060c001604052806040518060400160405280600581526020017f427261766500000000000000000000000000000000000000000000000000000081525081526020016040518060400160405280600981526020017f427265616b61626c65000000000000000000000000000000000000000000000081525081526020016040518060400160405280600681526020017f427269676874000000000000000000000000000000000000000000000000000081525081526020016040518060400160405280600481526020017f427573790000000000000000000000000000000000000000000000000000000081525081526020016040518060400160405280600481526020017f43616c6d0000000000000000000000000000000000000000000000000000000081525081526020016040518060400160405280600781526020017f4361726566756c00000000000000000000000000000000000000000000000000815250815250600a906006620001e6929190620008bd565b506040518060c001604052806040518060400160405280600581526020017f567563696300000000000000000000000000000000000000000000000000000081525081526020016040518060400160405280600781526020017f4e696b6f6c69630000000000000000000000000000000000000000000000000081525081526020016040518060400160405280600981526020017f44656a616e6f766963000000000000000000000000000000000000000000000081525081526020016040518060400160405280600581526020017f546164696300000000000000000000000000000000000000000000000000000081525081526020016040518060400160405280600881526020017f4d61726b6f76696300000000000000000000000000000000000000000000000081525081526020016040518060400160405280600a81526020017f4d696861696c6f76696300000000000000000000000000000000000000000000815250815250600b90600662000364929190620008bd565b506040518060c001604052806040518060400160405280600981526020017f48616d627572676572000000000000000000000000000000000000000000000081525081526020016040518060400160405280600481526020017f426565720000000000000000000000000000000000000000000000000000000081525081526020016040518060400160405280600581526020017f50697a7a6100000000000000000000000000000000000000000000000000000081525081526020016040518060400160405280600581526020017f427572656b00000000000000000000000000000000000000000000000000000081525081526020016040518060400160405280600681526020017f52616b696a61000000000000000000000000000000000000000000000000000081525081526020016040518060400160405280600681526020017f4365766170690000000000000000000000000000000000000000000000000000815250815250600c906006620004e2929190620008bd565b506040518060c001604052806040518060400160405280600381526020017f726564000000000000000000000000000000000000000000000000000000000081525081526020016040518060400160405280600781526020017f233038433241380000000000000000000000000000000000000000000000000081525081526020016040518060400160405280600581526020017f626c61636b00000000000000000000000000000000000000000000000000000081525081526020016040518060400160405280600681526020017f79656c6c6f77000000000000000000000000000000000000000000000000000081525081526020016040518060400160405280600481526020017f626c75650000000000000000000000000000000000000000000000000000000081525081526020016040518060400160405280600581526020017f677265656e000000000000000000000000000000000000000000000000000000815250815250600d90600662000660929190620008bd565b503480156200066e57600080fd5b506040518060400160405280600981526020017f5371756172654e465400000000000000000000000000000000000000000000008152506040518060400160405280600681526020017f53515541524500000000000000000000000000000000000000000000000000008152508160009080519060200190620006f39291906200082c565b5080600190805190602001906200070c9291906200082c565b5050506200075a6040518060400160405280601e81526020017f54686973206973206d79204e465420636f6e74726163742e20576f61682100008152506200076060201b620014451760201c565b62000ade565b6200080081604051602401620007779190620009f2565b6040516020818303038152906040527f41304fac000000000000000000000000000000000000000000000000000000007bffffffffffffffffffffffffffffffffffffffffffffffffffffffff19166020820180517bffffffffffffffffffffffffffffffffffffffffffffffffffffffff83818316178352505050506200080360201b60201c565b50565b60008151905060006a636f6e736f6c652e6c6f679050602083016000808483855afa5050505050565b8280546200083a9062000a68565b90600052602060002090601f0160209004810192826200085e5760008555620008aa565b82601f106200087957805160ff1916838001178555620008aa565b82800160010185558215620008aa579182015b82811115620008a95782518255916020019190600101906200088c565b5b509050620008b9919062000924565b5090565b82805482825590600052602060002090810192821562000911579160200282015b8281111562000910578251829080519060200190620008ff9291906200082c565b5091602001919060010190620008de565b5b50905062000920919062000943565b5090565b5b808211156200093f57600081600090555060010162000925565b5090565b5b808211156200096757600081816200095d91906200096b565b5060010162000944565b5090565b508054620009799062000a68565b6000825580601f106200098d5750620009ae565b601f016020900490600052602060002090810190620009ad919062000924565b5b50565b6000620009be8262000a16565b620009ca818562000a21565b9350620009dc81856020860162000a32565b620009e78162000acd565b840191505092915050565b6000602082019050818103600083015262000a0e8184620009b1565b905092915050565b600081519050919050565b600082825260208201905092915050565b60005b8381101562000a5257808201518184015260208101905062000a35565b8381111562000a62576000848401525b50505050565b6000600282049050600182168062000a8157607f821691505b6020821081141562000a985762000a9762000a9e565b5b50919050565b7f4e487b7100000000000000000000000000000000000000000000000000000000600052602260045260246000fd5b6000601f19601f8301169050919050565b613b008062000aee6000396000f3fe608060405234801561001057600080fd5b50600436106101375760003560e01c80636352211e116100b8578063b187301f1161007c578063b187301f14610362578063b88d4fde14610392578063c575757a146103ae578063c87b56dd146103de578063de9d132f1461040e578063e985e9c51461041857610137565b80636352211e146102aa57806370a08231146102da5780637270e3541461030a57806395d89b4114610328578063a22cb4651461034657610137565b8063095ea7b3116100ff578063095ea7b3146101f657806323b872dd146102125780632de38d681461022e57806342842e0e1461025e578063514dc8c61461027a57610137565b806301ffc9a71461013c578063027752401461016c578063060475901461018a57806306fdde03146101a8578063081812fc146101c6575b600080fd5b610156600480360381019061015191906126d8565b610448565b6040516101639190613376565b60405180910390f35b61017461052a565b60405161018191906135f1565b60405180910390f35b61019261052f565b60405161019f91906135f1565b60405180910390f35b6101b0610540565b6040516101bd9190613391565b60405180910390f35b6101e060048036038101906101db919061272a565b6105d2565b6040516101ed91906132e6565b60405180910390f35b610210600480360381019061020b919061269c565b610657565b005b61022c60048036038101906102279190612596565b61076f565b005b6102486004803603810190610243919061272a565b6107cf565b6040516102559190613391565b60405180910390f35b61027860048036038101906102739190612596565b6108ed565b005b610294600480360381019061028f919061272a565b61090d565b6040516102a19190613391565b60405180910390f35b6102c460048036038101906102bf919061272a565b610a2b565b6040516102d191906132e6565b60405180910390f35b6102f460048036038101906102ef9190612531565b610add565b60405161030191906135f1565b60405180910390f35b610312610b95565b60405161031f91906135f1565b60405180910390f35b610330610b9e565b60405161033d9190613391565b60405180910390f35b610360600480360381019061035b9190612660565b610c30565b005b61037c6004803603810190610377919061272a565b610db1565b6040516103899190613391565b60405180910390f35b6103ac60048036038101906103a791906125e5565b610ecf565b005b6103c860048036038101906103c3919061272a565b610f31565b6040516103d59190613391565b60405180910390f35b6103f860048036038101906103f3919061272a565b61104f565b6040516104059190613391565b60405180910390f35b6104166111a1565b005b610432600480360381019061042d919061255a565b6113b1565b60405161043f9190613376565b60405180910390f35b60007f80ac58cd000000000000000000000000000000000000000000000000000000007bffffffffffffffffffffffffffffffffffffffffffffffffffffffff1916827bffffffffffffffffffffffffffffffffffffffffffffffffffffffff1916148061051357507f5b5e139f000000000000000000000000000000000000000000000000000000007bffffffffffffffffffffffffffffffffffffffffffffffffffffffff1916827bffffffffffffffffffffffffffffffffffffffffffffffffffffffff1916145b806105235750610522826114de565b5b9050919050565b603281565b600061053b6007611548565b905090565b60606000805461054f90613890565b80601f016020809104026020016040519081016040528092919081815260200182805461057b90613890565b80156105c85780601f1061059d576101008083540402835291602001916105c8565b820191906000526020600020905b8154815290600101906020018083116105ab57829003601f168201915b5050505050905090565b60006105dd82611556565b61061c576040517f08c379a000000000000000000000000000000000000000000000000000000000815260040161061390613551565b60405180910390fd5b6004600083815260200190815260200160002060009054906101000a900473ffffffffffffffffffffffffffffffffffffffff169050919050565b600061066282610a2b565b90508073ffffffffffffffffffffffffffffffffffffffff168373ffffffffffffffffffffffffffffffffffffffff1614156106d3576040517f08c379a00000000000000000000000000000000000000000000000000000000081526004016106ca906135b1565b60405180910390fd5b8073ffffffffffffffffffffffffffffffffffffffff166106f26115c2565b73ffffffffffffffffffffffffffffffffffffffff16148061072157506107208161071b6115c2565b6113b1565b5b610760576040517f08c379a000000000000000000000000000000000000000000000000000000000815260040161075790613491565b60405180910390fd5b61076a83836115ca565b505050565b61078061077a6115c2565b82611683565b6107bf576040517f08c379a00000000000000000000000000000000000000000000000000000000081526004016107b6906135d1565b60405180910390fd5b6107ca838383611761565b505050565b606060006108036107df846119bd565b6040516020016107ef9190613280565b604051602081830303815290604052611b6a565b9050600a8054905081610816919061390b565b9050600a8181548110610852577f4e487b7100000000000000000000000000000000000000000000000000000000600052603260045260246000fd5b90600052602060002001805461086790613890565b80601f016020809104026020016040519081016040528092919081815260200182805461089390613890565b80156108e05780601f106108b5576101008083540402835291602001916108e0565b820191906000526020600020905b8154815290600101906020018083116108c357829003601f168201915b5050505050915050919050565b61090883838360405180602001604052806000815250610ecf565b505050565b6060600061094161091d846119bd565b60405160200161092d91906132c4565b604051602081830303815290604052611b6a565b9050600d8054905081610954919061390b565b9050600d8181548110610990577f4e487b7100000000000000000000000000000000000000000000000000000000600052603260045260246000fd5b9060005260206000200180546109a590613890565b80601f01602080910402602001604051908101604052809291908181526020018280546109d190613890565b8015610a1e5780601f106109f357610100808354040283529160200191610a1e565b820191906000526020600020905b815481529060010190602001808311610a0157829003601f168201915b5050505050915050919050565b6000806002600084815260200190815260200160002060009054906101000a900473ffffffffffffffffffffffffffffffffffffffff169050600073ffffffffffffffffffffffffffffffffffffffff168173ffffffffffffffffffffffffffffffffffffffff161415610ad4576040517f08c379a0000000000000000000000000000000000000000000000000000000008152600401610acb906134d1565b60405180910390fd5b80915050919050565b60008073ffffffffffffffffffffffffffffffffffffffff168273ffffffffffffffffffffffffffffffffffffffff161415610b4e576040517f08c379a0000000000000000000000000000000000000000000000000000000008152600401610b45906134b1565b60405180910390fd5b600360008373ffffffffffffffffffffffffffffffffffffffff1673ffffffffffffffffffffffffffffffffffffffff168152602001908152602001600020549050919050565b60006032905090565b606060018054610bad90613890565b80601f0160208091040260200160405190810160405280929190818152602001828054610bd990613890565b8015610c265780601f10610bfb57610100808354040283529160200191610c26565b820191906000526020600020905b815481529060010190602001808311610c0957829003601f168201915b5050505050905090565b610c386115c2565b73ffffffffffffffffffffffffffffffffffffffff168273ffffffffffffffffffffffffffffffffffffffff161415610ca6576040517f08c379a0000000000000000000000000000000000000000000000000000000008152600401610c9d90613451565b60405180910390fd5b8060056000610cb36115c2565b73ffffffffffffffffffffffffffffffffffffffff1673ffffffffffffffffffffffffffffffffffffffff16815260200190815260200160002060008473ffffffffffffffffffffffffffffffffffffffff1673ffffffffffffffffffffffffffffffffffffffff16815260200190815260200160002060006101000a81548160ff0219169083151502179055508173ffffffffffffffffffffffffffffffffffffffff16610d606115c2565b73ffffffffffffffffffffffffffffffffffffffff167f17307eab39ab6107e8899845ad3d59bd9653f200f220920489ca2b5937696c3183604051610da59190613376565b60405180910390a35050565b60606000610de5610dc1846119bd565b604051602001610dd19190613219565b604051602081830303815290604052611b6a565b9050600a8054905081610df8919061390b565b9050600b8181548110610e34577f4e487b7100000000000000000000000000000000000000000000000000000000600052603260045260246000fd5b906000526020600020018054610e4990613890565b80601f0160208091040260200160405190810160405280929190818152602001828054610e7590613890565b8015610ec25780601f10610e9757610100808354040283529160200191610ec2565b820191906000526020600020905b815481529060010190602001808311610ea557829003601f168201915b5050505050915050919050565b610ee0610eda6115c2565b83611683565b610f1f576040517f08c379a0000000000000000000000000000000000000000000000000000000008152600401610f16906135d1565b60405180910390fd5b610f2b84848484611b9d565b50505050565b60606000610f65610f41846119bd565b604051602001610f5191906131f7565b604051602081830303815290604052611b6a565b9050600a8054905081610f78919061390b565b9050600c8181548110610fb4577f4e487b7100000000000000000000000000000000000000000000000000000000600052603260045260246000fd5b906000526020600020018054610fc990613890565b80601f0160208091040260200160405190810160405280929190818152602001828054610ff590613890565b80156110425780601f1061101757610100808354040283529160200191611042565b820191906000526020600020905b81548152906001019060200180831161102557829003601f168201915b5050505050915050919050565b606061105a82611556565b611099576040517f08c379a000000000000000000000000000000000000000000000000000000000815260040161109090613531565b60405180910390fd5b60006006600084815260200190815260200160002080546110b990613890565b80601f01602080910402602001604051908101604052809291908181526020018280546110e590613890565b80156111325780601f1061110757610100808354040283529160200191611132565b820191906000526020600020905b81548152906001019060200180831161111557829003601f168201915b505050505090506000611143611bf9565b905060008151141561115957819250505061119c565b60008251111561118e578082604051602001611176929190613159565b6040516020818303038152906040529250505061119c565b61119784611c10565b925050505b919050565b60326111ad6007611548565b106111b757600080fd5b60006111c36007611548565b905060006111d0826107cf565b905060006111dd83610db1565b905060006111ea84610f31565b905060008383836040516020016112039392919061317d565b6040516020818303038152906040529050600061121f8661090d565b9050600060088260098560405160200161123c94939291906131ae565b604051602081830303815290604052905060006112818461125c84611cb7565b60405160200161126d92919061323b565b604051602081830303815290604052611cb7565b905060008160405160200161129691906132a2565b60405160208183030381529060405290506112e56040518060400160405280601581526020017f0a2d2d2d2d2d2d2d2d2d2d2d2d2d2d2d2d2d2d2d2d0000000000000000000000815250611445565b6112ee81611445565b61132c6040518060400160405280601581526020017f2d2d2d2d2d2d2d2d2d2d2d2d2d2d2d2d2d2d2d2d0a0000000000000000000000815250611445565b611336338a611e75565b6113408982611e93565b61134a6007611f07565b61136d604051806060016040528060258152602001613a66602591398a33611f1d565b7febb98688741ffa4c7589bf325de30cf7becb63de567842e1ccdb6cb949fdc82c338a60405161139e92919061334d565b60405180910390a1505050505050505050565b6000600560008473ffffffffffffffffffffffffffffffffffffffff1673ffffffffffffffffffffffffffffffffffffffff16815260200190815260200160002060008373ffffffffffffffffffffffffffffffffffffffff1673ffffffffffffffffffffffffffffffffffffffff16815260200190815260200160002060009054906101000a900460ff16905092915050565b6114db816040516024016114599190613391565b6040516020818303038152906040527f41304fac000000000000000000000000000000000000000000000000000000007bffffffffffffffffffffffffffffffffffffffffffffffffffffffff19166020820180517bffffffffffffffffffffffffffffffffffffffffffffffffffffffff8381831617835250505050611fbc565b50565b60007f01ffc9a7000000000000000000000000000000000000000000000000000000007bffffffffffffffffffffffffffffffffffffffffffffffffffffffff1916827bffffffffffffffffffffffffffffffffffffffffffffffffffffffff1916149050919050565b600081600001549050919050565b60008073ffffffffffffffffffffffffffffffffffffffff166002600084815260200190815260200160002060009054906101000a900473ffffffffffffffffffffffffffffffffffffffff1673ffffffffffffffffffffffffffffffffffffffff1614159050919050565b600033905090565b816004600083815260200190815260200160002060006101000a81548173ffffffffffffffffffffffffffffffffffffffff021916908373ffffffffffffffffffffffffffffffffffffffff160217905550808273ffffffffffffffffffffffffffffffffffffffff1661163d83610a2b565b73ffffffffffffffffffffffffffffffffffffffff167f8c5be1e5ebec7d5bd14f71427d1e84f3dd0314c0f7b2291e5b200ac8c7c3b92560405160405180910390a45050565b600061168e82611556565b6116cd576040517f08c379a00000000000000000000000000000000000000000000000000000000081526004016116c490613471565b60405180910390fd5b60006116d883610a2b565b90508073ffffffffffffffffffffffffffffffffffffffff168473ffffffffffffffffffffffffffffffffffffffff16148061174757508373ffffffffffffffffffffffffffffffffffffffff1661172f846105d2565b73ffffffffffffffffffffffffffffffffffffffff16145b80611758575061175781856113b1565b5b91505092915050565b8273ffffffffffffffffffffffffffffffffffffffff1661178182610a2b565b73ffffffffffffffffffffffffffffffffffffffff16146117d7576040517f08c379a00000000000000000000000000000000000000000000000000000000081526004016117ce90613571565b60405180910390fd5b600073ffffffffffffffffffffffffffffffffffffffff168273ffffffffffffffffffffffffffffffffffffffff161415611847576040517f08c379a000000000000000000000000000000000000000000000000000000000815260040161183e90613431565b60405180910390fd5b611852838383611fe5565b61185d6000826115ca565b6001600360008573ffffffffffffffffffffffffffffffffffffffff1673ffffffffffffffffffffffffffffffffffffffff16815260200190815260200160002060008282546118ad91906137a6565b925050819055506001600360008473ffffffffffffffffffffffffffffffffffffffff1673ffffffffffffffffffffffffffffffffffffffff168152602001908152602001600020600082825461190491906136c5565b92505081905550816002600083815260200190815260200160002060006101000a81548173ffffffffffffffffffffffffffffffffffffffff021916908373ffffffffffffffffffffffffffffffffffffffff160217905550808273ffffffffffffffffffffffffffffffffffffffff168473ffffffffffffffffffffffffffffffffffffffff167fddf252ad1be2c89b69c2b068fc378daa952ba7f163c4a11628f55a4df523b3ef60405160405180910390a4505050565b60606000821415611a05576040518060400160405280600181526020017f30000000000000000000000000000000000000000000000000000000000000008152509050611b65565b600082905060005b60008214611a37578080611a20906138c2565b915050600a82611a30919061371b565b9150611a0d565b60008167ffffffffffffffff811115611a79577f4e487b7100000000000000000000000000000000000000000000000000000000600052604160045260246000fd5b6040519080825280601f01601f191660200182016040528015611aab5781602001600182028036833780820191505090505b5090505b60008514611b5e57600182611ac491906137a6565b9150600a85611ad3919061390b565b6030611adf91906136c5565b60f81b818381518110611b1b577f4e487b7100000000000000000000000000000000000000000000000000000000600052603260045260246000fd5b60200101907effffffffffffffffffffffffffffffffffffffffffffffffffffffffffffff1916908160001a905350600a85611b57919061371b565b9450611aaf565b8093505050505b919050565b600081604051602001611b7d9190613142565b6040516020818303038152906040528051906020012060001c9050919050565b611ba8848484611761565b611bb484848484611fea565b611bf3576040517f08c379a0000000000000000000000000000000000000000000000000000000008152600401611bea906133f1565b60405180910390fd5b50505050565b606060405180602001604052806000815250905090565b6060611c1b82611556565b611c5a576040517f08c379a0000000000000000000000000000000000000000000000000000000008152600401611c5190613591565b60405180910390fd5b6000611c64611bf9565b90506000815111611c845760405180602001604052806000815250611caf565b80611c8e846119bd565b604051602001611c9f929190613159565b6040516020818303038152906040525b915050919050565b60606000825190506000811415611ce05760405180602001604052806000815250915050611e70565b60006003600283611cf191906136c5565b611cfb919061371b565b6004611d07919061374c565b90506000602082611d1891906136c5565b67ffffffffffffffff811115611d57577f4e487b7100000000000000000000000000000000000000000000000000000000600052604160045260246000fd5b6040519080825280601f01601f191660200182016040528015611d895781602001600182028036833780820191505090505b5090506000604051806060016040528060408152602001613a8b604091399050600181016020830160005b86811015611e2d5760038101905062ffffff818a015116603f8160121c168401518060081b905060ff603f83600c1c1686015116810190508060081b905060ff603f8360061c1686015116810190508060081b905060ff603f831686015116810190508060e01b90508084526004840193505050611db4565b506003860660018114611e475760028114611e5757611e62565b613d3d60f01b6002830352611e62565b603d60f81b60018303525b508484525050819450505050505b919050565b611e8f828260405180602001604052806000815250612181565b5050565b611e9c82611556565b611edb576040517f08c379a0000000000000000000000000000000000000000000000000000000008152600401611ed2906134f1565b60405180910390fd5b80600660008481526020019081526020016000209080519060200190611f029291906123bd565b505050565b6001816000016000828254019250508190555050565b611fb7838383604051602401611f35939291906133b3565b6040516020818303038152906040527fe3849f79000000000000000000000000000000000000000000000000000000007bffffffffffffffffffffffffffffffffffffffffffffffffffffffff19166020820180517bffffffffffffffffffffffffffffffffffffffffffffffffffffffff8381831617835250505050611fbc565b505050565b60008151905060006a636f6e736f6c652e6c6f679050602083016000808483855afa5050505050565b505050565b600061200b8473ffffffffffffffffffffffffffffffffffffffff166121dc565b15612174578373ffffffffffffffffffffffffffffffffffffffff1663150b7a026120346115c2565b8786866040518563ffffffff1660e01b81526004016120569493929190613301565b602060405180830381600087803b15801561207057600080fd5b505af19250505080156120a157506040513d601f19601f8201168201806040525081019061209e9190612701565b60015b612124573d80600081146120d1576040519150601f19603f3d011682016040523d82523d6000602084013e6120d6565b606091505b5060008151141561211c576040517f08c379a0000000000000000000000000000000000000000000000000000000008152600401612113906133f1565b60405180910390fd5b805181602001fd5b63150b7a0260e01b7bffffffffffffffffffffffffffffffffffffffffffffffffffffffff1916817bffffffffffffffffffffffffffffffffffffffffffffffffffffffff191614915050612179565b600190505b949350505050565b61218b83836121ef565b6121986000848484611fea565b6121d7576040517f08c379a00000000000000000000000000000000000000000000000000000000081526004016121ce906133f1565b60405180910390fd5b505050565b600080823b905060008111915050919050565b600073ffffffffffffffffffffffffffffffffffffffff168273ffffffffffffffffffffffffffffffffffffffff16141561225f576040517f08c379a000000000000000000000000000000000000000000000000000000000815260040161225690613511565b60405180910390fd5b61226881611556565b156122a8576040517f08c379a000000000000000000000000000000000000000000000000000000000815260040161229f90613411565b60405180910390fd5b6122b460008383611fe5565b6001600360008473ffffffffffffffffffffffffffffffffffffffff1673ffffffffffffffffffffffffffffffffffffffff168152602001908152602001600020600082825461230491906136c5565b92505081905550816002600083815260200190815260200160002060006101000a81548173ffffffffffffffffffffffffffffffffffffffff021916908373ffffffffffffffffffffffffffffffffffffffff160217905550808273ffffffffffffffffffffffffffffffffffffffff16600073ffffffffffffffffffffffffffffffffffffffff167fddf252ad1be2c89b69c2b068fc378daa952ba7f163c4a11628f55a4df523b3ef60405160405180910390a45050565b8280546123c990613890565b90600052602060002090601f0160209004810192826123eb5760008555612432565b82601f1061240457805160ff1916838001178555612432565b82800160010185558215612432579182015b82811115612431578251825591602001919060010190612416565b5b50905061243f9190612443565b5090565b5b8082111561245c576000816000905550600101612444565b5090565b600061247361246e8461363d565b61360c565b90508281526020810184848401111561248b57600080fd5b61249684828561384e565b509392505050565b6000813590506124ad81613a09565b92915050565b6000813590506124c281613a20565b92915050565b6000813590506124d781613a37565b92915050565b6000815190506124ec81613a37565b92915050565b600082601f83011261250357600080fd5b8135612513848260208601612460565b91505092915050565b60008135905061252b81613a4e565b92915050565b60006020828403121561254357600080fd5b60006125518482850161249e565b91505092915050565b6000806040838503121561256d57600080fd5b600061257b8582860161249e565b925050602061258c8582860161249e565b9150509250929050565b6000806000606084860312156125ab57600080fd5b60006125b98682870161249e565b93505060206125ca8682870161249e565b92505060406125db8682870161251c565b9150509250925092565b600080600080608085870312156125fb57600080fd5b60006126098782880161249e565b945050602061261a8782880161249e565b935050604061262b8782880161251c565b925050606085013567ffffffffffffffff81111561264857600080fd5b612654878288016124f2565b91505092959194509250565b6000806040838503121561267357600080fd5b60006126818582860161249e565b9250506020612692858286016124b3565b9150509250929050565b600080604083850312156126af57600080fd5b60006126bd8582860161249e565b92505060206126ce8582860161251c565b9150509250929050565b6000602082840312156126ea57600080fd5b60006126f8848285016124c8565b91505092915050565b60006020828403121561271357600080fd5b6000612721848285016124dd565b91505092915050565b60006020828403121561273c57600080fd5b600061274a8482850161251c565b91505092915050565b61275c816137da565b82525050565b61276b816137ec565b82525050565b600061277c82613682565b6127868185613698565b935061279681856020860161385d565b61279f816139f8565b840191505092915050565b60006127b58261368d565b6127bf81856136a9565b93506127cf81856020860161385d565b6127d8816139f8565b840191505092915050565b60006127ee8261368d565b6127f881856136ba565b935061280881856020860161385d565b80840191505092915050565b6000815461282181613890565b61282b81866136ba565b9450600182166000811461284657600181146128575761288a565b60ff1983168652818601935061288a565b6128608561366d565b60005b8381101561288257815481890152600182019150602081019050612863565b838801955050505b50505092915050565b60006128a06032836136a9565b91507f4552433732313a207472616e7366657220746f206e6f6e20455243373231526560008301527f63656976657220696d706c656d656e74657200000000000000000000000000006020830152604082019050919050565b6000612906601c836136a9565b91507f4552433732313a20746f6b656e20616c7265616479206d696e746564000000006000830152602082019050919050565b6000612946600a836136ba565b91507f54484952445f574f5244000000000000000000000000000000000000000000006000830152600a82019050919050565b60006129866024836136a9565b91507f4552433732313a207472616e7366657220746f20746865207a65726f2061646460008301527f72657373000000000000000000000000000000000000000000000000000000006020830152604082019050919050565b60006129ec6019836136a9565b91507f4552433732313a20617070726f766520746f2063616c6c6572000000000000006000830152602082019050919050565b6000612a2c6063836136ba565b91507f222c20226465736372697074696f6e223a20224120686967686c79206163636c60008301527f61696d656420636f6c6c656374696f6e206f6620737175617265732e222c202260208301527f696d616765223a2022646174613a696d6167652f7376672b786d6c3b6261736560408301527f36342c00000000000000000000000000000000000000000000000000000000006060830152606382019050919050565b6000612ade600b836136ba565b91507f5345434f4e445f574f52440000000000000000000000000000000000000000006000830152600b82019050919050565b6000612b1e602c836136a9565b91507f4552433732313a206f70657261746f7220717565727920666f72206e6f6e657860008301527f697374656e7420746f6b656e00000000000000000000000000000000000000006020830152604082019050919050565b6000612b84600d836136ba565b91507f3c2f746578743e3c2f7376673e000000000000000000000000000000000000006000830152600d82019050919050565b6000612bc46038836136a9565b91507f4552433732313a20617070726f76652063616c6c6572206973206e6f74206f7760008301527f6e6572206e6f7220617070726f76656420666f7220616c6c00000000000000006020830152604082019050919050565b6000612c2a602a836136a9565b91507f4552433732313a2062616c616e636520717565727920666f7220746865207a6560008301527f726f2061646472657373000000000000000000000000000000000000000000006020830152604082019050919050565b6000612c906029836136a9565b91507f4552433732313a206f776e657220717565727920666f72206e6f6e657869737460008301527f656e7420746f6b656e00000000000000000000000000000000000000000000006020830152604082019050919050565b6000612cf6602e836136a9565b91507f45524337323155524953746f726167653a2055524920736574206f66206e6f6e60008301527f6578697374656e7420746f6b656e0000000000000000000000000000000000006020830152604082019050919050565b6000612d5c6002836136ba565b91507f227d0000000000000000000000000000000000000000000000000000000000006000830152600282019050919050565b6000612d9c6020836136a9565b91507f4552433732313a206d696e7420746f20746865207a65726f20616464726573736000830152602082019050919050565b6000612ddc6031836136a9565b91507f45524337323155524953746f726167653a2055524920717565727920666f722060008301527f6e6f6e6578697374656e7420746f6b656e0000000000000000000000000000006020830152604082019050919050565b6000612e42602c836136a9565b91507f4552433732313a20617070726f76656420717565727920666f72206e6f6e657860008301527f697374656e7420746f6b656e00000000000000000000000000000000000000006020830152604082019050919050565b6000612ea86029836136a9565b91507f4552433732313a207472616e73666572206f6620746f6b656e2074686174206960008301527f73206e6f74206f776e00000000000000000000000000000000000000000000006020830152604082019050919050565b6000612f0e602f836136a9565b91507f4552433732314d657461646174613a2055524920717565727920666f72206e6f60008301527f6e6578697374656e7420746f6b656e00000000000000000000000000000000006020830152604082019050919050565b6000612f74600a836136ba565b91507f7b226e616d65223a2022000000000000000000000000000000000000000000006000830152600a82019050919050565b6000612fb46021836136a9565b91507f4552433732313a20617070726f76616c20746f2063757272656e74206f776e6560008301527f72000000000000000000000000000000000000000000000000000000000000006020830152604082019050919050565b600061301a600a836136ba565b91507f46495253545f574f5244000000000000000000000000000000000000000000006000830152600a82019050919050565b600061305a601d836136ba565b91507f646174613a6170706c69636174696f6e2f6a736f6e3b6261736536342c0000006000830152601d82019050919050565b600061309a6031836136a9565b91507f4552433732313a207472616e736665722063616c6c6572206973206e6f74206f60008301527f776e6572206e6f7220617070726f7665640000000000000000000000000000006020830152604082019050919050565b60006131006005836136ba565b91507f434f4c4f520000000000000000000000000000000000000000000000000000006000830152600582019050919050565b61313c81613844565b82525050565b600061314e82846127e3565b915081905092915050565b600061316582856127e3565b915061317182846127e3565b91508190509392505050565b600061318982866127e3565b915061319582856127e3565b91506131a182846127e3565b9150819050949350505050565b60006131ba8287612814565b91506131c682866127e3565b91506131d28285612814565b91506131de82846127e3565b91506131e982612b77565b915081905095945050505050565b600061320282612939565b915061320e82846127e3565b915081905092915050565b600061322482612ad1565b915061323082846127e3565b915081905092915050565b600061324682612f67565b915061325282856127e3565b915061325d82612a1f565b915061326982846127e3565b915061327482612d4f565b91508190509392505050565b600061328b8261300d565b915061329782846127e3565b915081905092915050565b60006132ad8261304d565b91506132b982846127e3565b915081905092915050565b60006132cf826130f3565b91506132db82846127e3565b915081905092915050565b60006020820190506132fb6000830184612753565b92915050565b60006080820190506133166000830187612753565b6133236020830186612753565b6133306040830185613133565b81810360608301526133428184612771565b905095945050505050565b60006040820190506133626000830185612753565b61336f6020830184613133565b9392505050565b600060208201905061338b6000830184612762565b92915050565b600060208201905081810360008301526133ab81846127aa565b905092915050565b600060608201905081810360008301526133cd81866127aa565b90506133dc6020830185613133565b6133e96040830184612753565b949350505050565b6000602082019050818103600083015261340a81612893565b9050919050565b6000602082019050818103600083015261342a816128f9565b9050919050565b6000602082019050818103600083015261344a81612979565b9050919050565b6000602082019050818103600083015261346a816129df565b9050919050565b6000602082019050818103600083015261348a81612b11565b9050919050565b600060208201905081810360008301526134aa81612bb7565b9050919050565b600060208201905081810360008301526134ca81612c1d565b9050919050565b600060208201905081810360008301526134ea81612c83565b9050919050565b6000602082019050818103600083015261350a81612ce9565b9050919050565b6000602082019050818103600083015261352a81612d8f565b9050919050565b6000602082019050818103600083015261354a81612dcf565b9050919050565b6000602082019050818103600083015261356a81612e35565b9050919050565b6000602082019050818103600083015261358a81612e9b565b9050919050565b600060208201905081810360008301526135aa81612f01565b9050919050565b600060208201905081810360008301526135ca81612fa7565b9050919050565b600060208201905081810360008301526135ea8161308d565b9050919050565b60006020820190506136066000830184613133565b92915050565b6000604051905081810181811067ffffffffffffffff82111715613633576136326139c9565b5b8060405250919050565b600067ffffffffffffffff821115613658576136576139c9565b5b601f19601f8301169050602081019050919050565b60008190508160005260206000209050919050565b600081519050919050565b600081519050919050565b600082825260208201905092915050565b600082825260208201905092915050565b600081905092915050565b60006136d082613844565b91506136db83613844565b9250827fffffffffffffffffffffffffffffffffffffffffffffffffffffffffffffffff038211156137105761370f61393c565b5b828201905092915050565b600061372682613844565b915061373183613844565b9250826137415761374061396b565b5b828204905092915050565b600061375782613844565b915061376283613844565b9250817fffffffffffffffffffffffffffffffffffffffffffffffffffffffffffffffff048311821515161561379b5761379a61393c565b5b828202905092915050565b60006137b182613844565b91506137bc83613844565b9250828210156137cf576137ce61393c565b5b828203905092915050565b60006137e582613824565b9050919050565b60008115159050919050565b60007fffffffff0000000000000000000000000000000000000000000000000000000082169050919050565b600073ffffffffffffffffffffffffffffffffffffffff82169050919050565b6000819050919050565b82818337600083830152505050565b60005b8381101561387b578082015181840152602081019050613860565b8381111561388a576000848401525b50505050565b600060028204905060018216806138a857607f821691505b602082108114156138bc576138bb61399a565b5b50919050565b60006138cd82613844565b91507fffffffffffffffffffffffffffffffffffffffffffffffffffffffffffffffff821415613900576138ff61393c565b5b600182019050919050565b600061391682613844565b915061392183613844565b9250826139315761393061396b565b5b828206905092915050565b7f4e487b7100000000000000000000000000000000000000000000000000000000600052601160045260246000fd5b7f4e487b7100000000000000000000000000000000000000000000000000000000600052601260045260246000fd5b7f4e487b7100000000000000000000000000000000000000000000000000000000600052602260045260246000fd5b7f4e487b7100000000000000000000000000000000000000000000000000000000600052604160045260246000fd5b6000601f19601f8301169050919050565b613a12816137da565b8114613a1d57600080fd5b50565b613a29816137ec565b8114613a3457600080fd5b50565b613a40816137f8565b8114613a4b57600080fd5b50565b613a5781613844565b8114613a6257600080fd5b5056fe416e204e465420772f20494420257320686173206265656e206d696e74656420746f2025734142434445464748494a4b4c4d4e4f505152535455565758595a6162636465666768696a6b6c6d6e6f707172737475767778797a303132333435363738392b2fa264697066735822122045ceb07e9146365443095e279a1236903321becea478503fc8224dd53f96ea1964736f6c634300080000333c73766720786d6c6e733d27687474703a2f2f7777772e77332e6f72672f323030302f73766727207072657365727665417370656374526174696f3d27784d696e594d696e206d656574272076696577426f783d273020302033353020333530273e3c7374796c653e2e62617365207b2066696c6c3a2077686974653b20666f6e742d66616d696c793a2073657269663b20666f6e742d73697a653a20323470783b207d3c2f7374796c653e3c726563742077696474683d273130302527206865696768743d2731303025272066696c6c3d27272f3e3c7465787420783d273530252720793d273530252720636c6173733d27626173652720646f6d696e616e742d626173656c696e653d276d6964646c652720746578742d616e63686f723d276d6964646c65273e",
  "linkReferences": {},
  "deployedLinkReferences": {}
}